{
  "address": "0x14CeCC6Cdfd47F60831e40E1a8D34cE7094b60dF",
  "abi": [
    {
      "inputs": [
        {
          "internalType": "address",
          "name": "priceFeedAddress",
          "type": "address"
        }
      ],
      "stateMutability": "nonpayable",
      "type": "constructor"
    },
    {
      "inputs": [],
      "name": "FundMe__NotOwner",
      "type": "error"
    },
    {
      "stateMutability": "payable",
      "type": "fallback"
    },
    {
      "inputs": [],
      "name": "MINIMUM_USD",
      "outputs": [
        {
          "internalType": "uint256",
          "name": "",
          "type": "uint256"
        }
      ],
      "stateMutability": "view",
      "type": "function"
    },
    {
      "inputs": [],
      "name": "fund",
      "outputs": [],
      "stateMutability": "payable",
      "type": "function"
    },
    {
      "inputs": [
        {
          "internalType": "address",
          "name": "funder",
          "type": "address"
        }
      ],
      "name": "getAddressToAmountFunded",
      "outputs": [
        {
          "internalType": "uint256",
          "name": "",
          "type": "uint256"
        }
      ],
      "stateMutability": "view",
      "type": "function"
    },
    {
      "inputs": [
        {
          "internalType": "uint256",
          "name": "index",
          "type": "uint256"
        }
      ],
      "name": "getFunders",
      "outputs": [
        {
          "internalType": "address",
          "name": "",
          "type": "address"
        }
      ],
      "stateMutability": "view",
      "type": "function"
    },
    {
      "inputs": [],
      "name": "getOwner",
      "outputs": [
        {
          "internalType": "address",
          "name": "",
          "type": "address"
        }
      ],
      "stateMutability": "view",
      "type": "function"
    },
    {
      "inputs": [],
      "name": "getPriceFeed",
      "outputs": [
        {
          "internalType": "contract AggregatorV3Interface",
          "name": "",
          "type": "address"
        }
      ],
      "stateMutability": "view",
      "type": "function"
    },
    {
      "inputs": [],
      "name": "withdraw",
      "outputs": [],
      "stateMutability": "nonpayable",
      "type": "function"
    },
    {
      "stateMutability": "payable",
      "type": "receive"
    }
  ],
  "transactionHash": "0xfe9370c83406fac411f4a856f663be5768bdbb36cb8b82f80bcc443994a3f473",
  "args": [
    "0xD4a33860578De61DBAbDc8BFdb98FD742fA7028e"
  ],
  "numDeployments": 2,
  "solcInputHash": "9c4f9017930626f32bd807a021721c7c",
  "bytecode": "0x60a060405234801561001057600080fd5b50604051610fbb380380610fbb83398181016040528101906100329190610113565b3373ffffffffffffffffffffffffffffffffffffffff1660808173ffffffffffffffffffffffffffffffffffffffff1660601b8152505080600260006101000a81548173ffffffffffffffffffffffffffffffffffffffff021916908373ffffffffffffffffffffffffffffffffffffffff16021790555050610140565b600080fd5b600073ffffffffffffffffffffffffffffffffffffffff82169050919050565b60006100e0826100b5565b9050919050565b6100f0816100d5565b81146100fb57600080fd5b50565b60008151905061010d816100e7565b92915050565b600060208284031215610129576101286100b0565b5b6000610137848285016100fe565b91505092915050565b60805160601c610e566101656000396000818161036f01526105b00152610e566000f3fe6080604052600436106100745760003560e01c80636b69a5921161004e5780636b69a5921461011e578063893d20e8146101495780639e87a5cd14610174578063b60d42881461019f57610083565b80630343fb251461008d5780633a7b6c74146100ca5780633ccfd60b1461010757610083565b36610083576100816101a9565b005b61008b6101a9565b005b34801561009957600080fd5b506100b460048036038101906100af91906107e4565b6102dd565b6040516100c1919061082a565b60405180910390f35b3480156100d657600080fd5b506100f160048036038101906100ec9190610871565b610326565b6040516100fe91906108ad565b60405180910390f35b34801561011357600080fd5b5061011c61036d565b005b34801561012a57600080fd5b506101336105a7565b604051610140919061082a565b60405180910390f35b34801561015557600080fd5b5061015e6105ac565b60405161016b91906108ad565b60405180910390f35b34801561018057600080fd5b506101896105d4565b6040516101969190610927565b60405180910390f35b6101a76101a9565b005b670de0b6b3a764000060326101be9190610971565b6101f3600260009054906101000a900473ffffffffffffffffffffffffffffffffffffffff16346105fe90919063ffffffff16565b1015610234576040517f08c379a000000000000000000000000000000000000000000000000000000000815260040161022b90610a28565b60405180910390fd5b6000339080600181540180825580915050600190039060005260206000200160009091909190916101000a81548173ffffffffffffffffffffffffffffffffffffffff021916908373ffffffffffffffffffffffffffffffffffffffff16021790555034600160003373ffffffffffffffffffffffffffffffffffffffff1673ffffffffffffffffffffffffffffffffffffffff16815260200190815260200160002081905550565b6000600160008373ffffffffffffffffffffffffffffffffffffffff1673ffffffffffffffffffffffffffffffffffffffff168152602001908152602001600020549050919050565b600080828154811061033b5761033a610a48565b5b9060005260206000200160009054906101000a900473ffffffffffffffffffffffffffffffffffffffff169050919050565b7f000000000000000000000000000000000000000000000000000000000000000073ffffffffffffffffffffffffffffffffffffffff163373ffffffffffffffffffffffffffffffffffffffff16146103f2576040517f579610db00000000000000000000000000000000000000000000000000000000815260040160405180910390fd5b60005b6000805490508110156104975760006001600080848154811061041b5761041a610a48565b5b9060005260206000200160009054906101000a900473ffffffffffffffffffffffffffffffffffffffff1673ffffffffffffffffffffffffffffffffffffffff1673ffffffffffffffffffffffffffffffffffffffff16815260200190815260200160002081905550808061048f90610a77565b9150506103f5565b50600067ffffffffffffffff8111156104b3576104b2610ac0565b5b6040519080825280602002602001820160405280156104e15781602001602082028036833780820191505090505b50600090805190602001906104f79291906106da565b5060003373ffffffffffffffffffffffffffffffffffffffff164760405161051e90610b20565b60006040518083038185875af1925050503d806000811461055b576040519150601f19603f3d011682016040523d82523d6000602084013e610560565b606091505b50509050806105a4576040517f08c379a000000000000000000000000000000000000000000000000000000000815260040161059b90610b81565b60405180910390fd5b50565b603281565b60007f0000000000000000000000000000000000000000000000000000000000000000905090565b6000600260009054906101000a900473ffffffffffffffffffffffffffffffffffffffff16905090565b60008061060a8361063a565b90506000670de0b6b3a764000085836106239190610971565b61062d9190610bd0565b9050809250505092915050565b6000808273ffffffffffffffffffffffffffffffffffffffff1663feaf968c6040518163ffffffff1660e01b815260040160a06040518083038186803b15801561068357600080fd5b505afa158015610697573d6000803e3d6000fd5b505050506040513d601f19601f820116820180604052508101906106bb9190610c8e565b5050509150506402540be400816106d29190610d09565b915050919050565b828054828255906000526020600020908101928215610753579160200282015b828111156107525782518260006101000a81548173ffffffffffffffffffffffffffffffffffffffff021916908373ffffffffffffffffffffffffffffffffffffffff160217905550916020019190600101906106fa565b5b5090506107609190610764565b5090565b5b8082111561077d576000816000905550600101610765565b5090565b600080fd5b600073ffffffffffffffffffffffffffffffffffffffff82169050919050565b60006107b182610786565b9050919050565b6107c1816107a6565b81146107cc57600080fd5b50565b6000813590506107de816107b8565b92915050565b6000602082840312156107fa576107f9610781565b5b6000610808848285016107cf565b91505092915050565b6000819050919050565b61082481610811565b82525050565b600060208201905061083f600083018461081b565b92915050565b61084e81610811565b811461085957600080fd5b50565b60008135905061086b81610845565b92915050565b60006020828403121561088757610886610781565b5b60006108958482850161085c565b91505092915050565b6108a7816107a6565b82525050565b60006020820190506108c2600083018461089e565b92915050565b6000819050919050565b60006108ed6108e86108e384610786565b6108c8565b610786565b9050919050565b60006108ff826108d2565b9050919050565b6000610911826108f4565b9050919050565b61092181610906565b82525050565b600060208201905061093c6000830184610918565b92915050565b7f4e487b7100000000000000000000000000000000000000000000000000000000600052601160045260246000fd5b600061097c82610811565b915061098783610811565b9250817fffffffffffffffffffffffffffffffffffffffffffffffffffffffffffffffff04831182151516156109c0576109bf610942565b5b828202905092915050565b600082825260208201905092915050565b7f596f75206e65656420746f207370656e64206d6f726520455448210000000000600082015250565b6000610a12601b836109cb565b9150610a1d826109dc565b602082019050919050565b60006020820190508181036000830152610a4181610a05565b9050919050565b7f4e487b7100000000000000000000000000000000000000000000000000000000600052603260045260246000fd5b6000610a8282610811565b91507fffffffffffffffffffffffffffffffffffffffffffffffffffffffffffffffff821415610ab557610ab4610942565b5b600182019050919050565b7f4e487b7100000000000000000000000000000000000000000000000000000000600052604160045260246000fd5b600081905092915050565b50565b6000610b0a600083610aef565b9150610b1582610afa565b600082019050919050565b6000610b2b82610afd565b9150819050919050565b7f5472616e73616374696f6e204661696c65640000000000000000000000000000600082015250565b6000610b6b6012836109cb565b9150610b7682610b35565b602082019050919050565b60006020820190508181036000830152610b9a81610b5e565b9050919050565b7f4e487b7100000000000000000000000000000000000000000000000000000000600052601260045260246000fd5b6000610bdb82610811565b9150610be683610811565b925082610bf657610bf5610ba1565b5b828204905092915050565b600069ffffffffffffffffffff82169050919050565b610c2081610c01565b8114610c2b57600080fd5b50565b600081519050610c3d81610c17565b92915050565b6000819050919050565b610c5681610c43565b8114610c6157600080fd5b50565b600081519050610c7381610c4d565b92915050565b600081519050610c8881610845565b92915050565b600080600080600060a08688031215610caa57610ca9610781565b5b6000610cb888828901610c2e565b9550506020610cc988828901610c64565b9450506040610cda88828901610c79565b9350506060610ceb88828901610c79565b9250506080610cfc88828901610c2e565b9150509295509295909350565b6000610d1482610c43565b9150610d1f83610c43565b9250827f7fffffffffffffffffffffffffffffffffffffffffffffffffffffffffffffff0482116000841360008413161615610d5e57610d5d610942565b5b817f80000000000000000000000000000000000000000000000000000000000000000583126000841260008413161615610d9b57610d9a610942565b5b827f80000000000000000000000000000000000000000000000000000000000000000582126000841360008412161615610dd857610dd7610942565b5b827f7fffffffffffffffffffffffffffffffffffffffffffffffffffffffffffffff0582126000841260008412161615610e1557610e14610942565b5b82820290509291505056fea2646970667358221220a6f4896911dec12651f12729f83b368c955fbb3cebd952eff6a219e03218173a64736f6c63430008080033",
  "devdoc": {
    "author": "Kamal Joshi",
    "details": "This implements price feeds as our library",
    "kind": "dev",
    "methods": {
      "fund()": {
        "details": "This implements price feeds as our library"
      }
    },
    "title": "A contract for crowd funding",
    "version": 1
  },
  "userdoc": {
    "kind": "user",
    "methods": {
      "fund()": {
        "notice": "This function funds this contract"
      }
    },
    "notice": "This contract is to demo a sample funding contract",
    "version": 1
  },
  "storageLayout": {
    "storage": [
      {
        "astId": 57,
        "contract": "contracts/FundMe.sol:FundMe",
        "label": "s_funders",
        "offset": 0,
        "slot": "0",
        "type": "t_array(t_address)dyn_storage"
      },
      {
        "astId": 62,
        "contract": "contracts/FundMe.sol:FundMe",
        "label": "s_addressToAmountFunded",
        "offset": 0,
        "slot": "1",
        "type": "t_mapping(t_address,t_uint256)"
      },
      {
        "astId": 70,
        "contract": "contracts/FundMe.sol:FundMe",
        "label": "s_priceFeed",
        "offset": 0,
        "slot": "2",
        "type": "t_contract(AggregatorV3Interface)45"
      }
    ],
    "types": {
      "t_address": {
        "encoding": "inplace",
        "label": "address",
        "numberOfBytes": "20"
      },
      "t_array(t_address)dyn_storage": {
        "base": "t_address",
        "encoding": "dynamic_array",
        "label": "address[]",
        "numberOfBytes": "32"
      },
      "t_contract(AggregatorV3Interface)45": {
        "encoding": "inplace",
        "label": "contract AggregatorV3Interface",
        "numberOfBytes": "20"
      },
      "t_mapping(t_address,t_uint256)": {
        "encoding": "mapping",
        "key": "t_address",
        "label": "mapping(address => uint256)",
        "numberOfBytes": "32",
        "value": "t_uint256"
      },
      "t_uint256": {
        "encoding": "inplace",
        "label": "uint256",
        "numberOfBytes": "32"
      }
    }
  }
}